:0300000002016694
:0C016600787FE4F6D8FD7581120200F4E9
:10000E0006020305020103020205020201030206B3
:10001E0002010502010602040302020502010602A4
:10002E00010502020302020102010601010502019D
:10003E000302010202040202030302010502020589
:10004E00020106020103020202020201020405027B
:10005E000303020102020101020106010101020174
:10006E00050106000000F2F3F5F5F6F7F8F9F9FAD6
:10007E00FAFBFBFCFCFCFDFDFDFDFEFEFEFEFEFEA6
:10008E00FEFF42C117B6D0D1B621E18CD868E95B2C
:0E009E008FEE446BB4F42D4777A2B6DAFA1653
:0200AC008F0AB9
:1000AE00E4F50BE50BC3950A5039E4F50FF50EF5A3
:1000BE000DF50CE47F407E1FFDFCAB0FAA0EA90DC3
:1000CE00A80CC312013B5017E50F2401F50FE435C0
:1000DE000EF50EE4350DF50DE4350CF50C80D4055A
:0500EE000B80C0C28C74
:0100F30022EA
:0D014C0085118C85128AD28CAF100200AC98
:1000F400758901D2AFD2A9E4F509E509C394645026
:10010400F6E50990000F9375F007A4FFE509900048
:100114000E932F14F50890007493F511E5089000E0
:100124009093F512E50990001093F51074032509D6
:07013400F50912014C80C324
:03000B0002015996
:0D015900C28CB28485118C85128AD28C3242
:10013B00EB9FF5F0EA9E42F0E99D42F0E89C45F01A
:01014B002291
:00000001FF
